{
  "contractName": "PaymentGateway",
  "abi": [
    {
      "inputs": [],
      "stateMutability": "nonpayable",
      "type": "constructor"
    },
    {
      "anonymous": false,
      "inputs": [
        {
          "indexed": true,
          "internalType": "address",
          "name": "from",
          "type": "address"
        },
        {
          "indexed": true,
          "internalType": "address",
          "name": "to",
          "type": "address"
        },
        {
          "indexed": false,
          "internalType": "uint256",
          "name": "amount",
          "type": "uint256"
        },
        {
          "indexed": false,
          "internalType": "string",
          "name": "productId",
          "type": "string"
        },
        {
          "indexed": false,
          "internalType": "uint256",
          "name": "timestamp",
          "type": "uint256"
        },
        {
          "indexed": false,
          "internalType": "bytes32",
          "name": "txHash",
          "type": "bytes32"
        }
      ],
      "name": "PaymentMade",
      "type": "event"
    },
    {
      "inputs": [],
      "name": "owner",
      "outputs": [
        {
          "internalType": "address",
          "name": "",
          "type": "address"
        }
      ],
      "stateMutability": "view",
      "type": "function",
      "constant": true
    },
    {
      "inputs": [
        {
          "internalType": "bytes32",
          "name": "",
          "type": "bytes32"
        }
      ],
      "name": "usedHashes",
      "outputs": [
        {
          "internalType": "bool",
          "name": "",
          "type": "bool"
        }
      ],
      "stateMutability": "view",
      "type": "function",
      "constant": true
    },
    {
      "inputs": [
        {
          "internalType": "address payable",
          "name": "recipient",
          "type": "address"
        },
        {
          "internalType": "string",
          "name": "productId",
          "type": "string"
        },
        {
          "internalType": "uint256",
          "name": "timestamp",
          "type": "uint256"
        },
        {
          "internalType": "bytes32",
          "name": "clientHash",
          "type": "bytes32"
        }
      ],
      "name": "payWithVerification",
      "outputs": [],
      "stateMutability": "payable",
      "type": "function",
      "payable": true
    }
  ],
  "bytecode": "0x608060405234801561001057600080fd5b50336000806101000a81548173ffffffffffffffffffffffffffffffffffffffff021916908373ffffffffffffffffffffffffffffffffffffffff160217905550610a1c806100606000396000f3fe6080604052600436106100345760003560e01c8063539e00ec146100395780638da5cb5b14610055578063aef18bf714610080575b600080fd5b610053600480360381019061004e9190610522565b6100bd565b005b34801561006157600080fd5b5061006a6102ba565b60405161007791906105c6565b60405180910390f35b34801561008c57600080fd5b506100a760048036038101906100a291906105e1565b6102de565b6040516100b49190610629565b60405180910390f35b60003411610100576040517f08c379a00000000000000000000000000000000000000000000000000000000081526004016100f7906106a1565b60405180910390fd5b6000338534868660405160200161011b9594939291906107c4565b604051602081830303815290604052805190602001209050818114610175576040517f08c379a000000000000000000000000000000000000000000000000000000000815260040161016c90610891565b60405180910390fd5b6001600082815260200190815260200160002060009054906101000a900460ff16156101d6576040517f08c379a00000000000000000000000000000000000000000000000000000000081526004016101cd90610923565b60405180910390fd5b600180600083815260200190815260200160002060006101000a81548160ff0219169083151502179055508473ffffffffffffffffffffffffffffffffffffffff166108fc349081150290604051600060405180830381858888f19350505050158015610247573d6000803e3d6000fd5b508473ffffffffffffffffffffffffffffffffffffffff163373ffffffffffffffffffffffffffffffffffffffff167f82ab8e4d5284018c5c3250550b8ee97e99357a09cb00899f37540ed5a06ca948348787866040516102ab949392919061099a565b60405180910390a35050505050565b60008054906101000a900473ffffffffffffffffffffffffffffffffffffffff1681565b60016020528060005260406000206000915054906101000a900460ff1681565b6000604051905090565b600080fd5b600080fd5b600073ffffffffffffffffffffffffffffffffffffffff82169050919050565b600061033d82610312565b9050919050565b61034d81610332565b811461035857600080fd5b50565b60008135905061036a81610344565b92915050565b600080fd5b600080fd5b6000601f19601f8301169050919050565b7f4e487b7100000000000000000000000000000000000000000000000000000000600052604160045260246000fd5b6103c38261037a565b810181811067ffffffffffffffff821117156103e2576103e161038b565b5b80604052505050565b60006103f56102fe565b905061040182826103ba565b919050565b600067ffffffffffffffff8211156104215761042061038b565b5b61042a8261037a565b9050602081019050919050565b82818337600083830152505050565b600061045961045484610406565b6103eb565b90508281526020810184848401111561047557610474610375565b5b610480848285610437565b509392505050565b600082601f83011261049d5761049c610370565b5b81356104ad848260208601610446565b91505092915050565b6000819050919050565b6104c9816104b6565b81146104d457600080fd5b50565b6000813590506104e6816104c0565b92915050565b6000819050919050565b6104ff816104ec565b811461050a57600080fd5b50565b60008135905061051c816104f6565b92915050565b6000806000806080858703121561053c5761053b610308565b5b600061054a8782880161035b565b945050602085013567ffffffffffffffff81111561056b5761056a61030d565b5b61057787828801610488565b9350506040610588878288016104d7565b92505060606105998782880161050d565b91505092959194509250565b60006105b082610312565b9050919050565b6105c0816105a5565b82525050565b60006020820190506105db60008301846105b7565b92915050565b6000602082840312156105f7576105f6610308565b5b60006106058482850161050d565b91505092915050565b60008115159050919050565b6106238161060e565b82525050565b600060208201905061063e600083018461061a565b92915050565b600082825260208201905092915050565b7f5061796d656e74206d7573742062652067726561746572207468616e20300000600082015250565b600061068b601e83610644565b915061069682610655565b602082019050919050565b600060208201905081810360008301526106ba8161067e565b9050919050565b60008160601b9050919050565b60006106d9826106c1565b9050919050565b60006106eb826106ce565b9050919050565b6107036106fe826105a5565b6106e0565b82525050565b6000610714826106ce565b9050919050565b61072c61072782610332565b610709565b82525050565b6000819050919050565b61074d610748826104b6565b610732565b82525050565b600081519050919050565b600081905092915050565b60005b8381101561078757808201518184015260208101905061076c565b60008484015250505050565b600061079e82610753565b6107a8818561075e565b93506107b8818560208601610769565b80840191505092915050565b60006107d082886106f2565b6014820191506107e0828761071b565b6014820191506107f0828661073c565b6020820191506108008285610793565b915061080c828461073c565b6020820191508190509695505050505050565b7f48617368206d69736d617463683a20706f737369626c652074616d706572696e60008201527f6700000000000000000000000000000000000000000000000000000000000000602082015250565b600061087b602183610644565b91506108868261081f565b604082019050919050565b600060208201905081810360008301526108aa8161086e565b9050919050565b7f4861736820616c726561647920757365643a207265706c61792061747461636b60008201527f2064657465637465640000000000000000000000000000000000000000000000602082015250565b600061090d602983610644565b9150610918826108b1565b604082019050919050565b6000602082019050818103600083015261093c81610900565b9050919050565b61094c816104b6565b82525050565b600061095d82610753565b6109678185610644565b9350610977818560208601610769565b6109808161037a565b840191505092915050565b610994816104ec565b82525050565b60006080820190506109af6000830187610943565b81810360208301526109c18186610952565b90506109d06040830185610943565b6109dd606083018461098b565b9594505050505056fea264697066735822122020ecefa141237b7caefc08ae442c0a138e55acf65bb3ad821be074d24069a9a364736f6c63430008110033",
  "immutableReferences": {},
  "source": "// SPDX-License-Identifier: MIT\r\npragma solidity ^0.8.17;\r\n\r\ncontract PaymentGateway {\r\n    address public owner;\r\n\r\n    // Used hash map to prevent replay attacks\r\n    mapping(bytes32 => bool) public usedHashes;\r\n\r\n    event PaymentMade(\r\n        address indexed from,\r\n        address indexed to,\r\n        uint256 amount,\r\n        string productId,\r\n        uint256 timestamp,\r\n        bytes32 txHash\r\n    );\r\n\r\n    constructor() {\r\n        owner = msg.sender;\r\n    }\r\n\r\n    // A function to add extra layer of security to the transaction\r\n    // keccak256(...): Creates a unique fingerprint of the tx input\r\n    // usedHashes: Ensures no hash is reused (prevents replay attacks)\r\n    // timestamp: Makes the hash time-sensitive\r\n    function payWithVerification(\r\n        address payable recipient,\r\n        string memory productId,\r\n        uint256 timestamp,\r\n        bytes32 clientHash\r\n    ) public payable {\r\n        require(msg.value > 0, \"Payment must be greater than 0\");\r\n\r\n        // Recreate the hash on-chain using sender, recipient, amount, product ID and timestamp\r\n        bytes32 hash = keccak256(\r\n            abi.encodePacked(msg.sender, recipient, msg.value, productId, timestamp)\r\n        );\r\n\r\n        require(hash == clientHash, \"Hash mismatch: possible tampering\");\r\n        require(!usedHashes[hash], \"Hash already used: replay attack detected\");\r\n\r\n        usedHashes[hash] = true;\r\n\r\n        // Transfer the payment\r\n        recipient.transfer(msg.value);\r\n\r\n        emit PaymentMade(\r\n            msg.sender,\r\n            recipient,\r\n            msg.value,\r\n            productId,\r\n            timestamp,\r\n            hash\r\n        );\r\n    }\r\n}\r\n",
  "sourcePath": "C:\\Users\\12509\\Desktop\\saspoly\\crypto-payment-dapp\\crypto-payment-dapp\\contracts\\PaymentGateway.sol",
  "compiler": {
    "name": "solc",
    "version": "0.8.17+commit.8df45f5f.Emscripten.clang"
  },
  "schemaVersion": "3.4.16",
  "updatedAt": "2025-04-15T19:21:17.395Z",
  "networkType": "ethereum",
  "devdoc": {
    "kind": "dev",
    "methods": {},
    "version": 1
  },
  "userdoc": {
    "kind": "user",
    "methods": {},
    "version": 1
  }
}